{
  "_format": "hh-sol-artifact-1",
  "contractName": "Arthur",
  "sourceName": "contracts/Arthur.sol",
  "abi": [
    {
      "anonymous": false,
      "inputs": [
        {
          "indexed": false,
          "internalType": "uint256",
          "name": "",
          "type": "uint256"
        }
      ],
      "name": "Pong",
      "type": "event"
    },
    {
      "inputs": [
        {
          "internalType": "string",
          "name": "source",
          "type": "string"
        }
      ],
      "name": "ping",
      "outputs": [
        {
          "internalType": "bytes32",
          "name": "result",
          "type": "bytes32"
        }
      ],
      "stateMutability": "pure",
      "type": "function"
    },
    {
      "inputs": [],
      "name": "pong",
      "outputs": [],
      "stateMutability": "nonpayable",
      "type": "function"
    }
  ],
  "bytecode": "0x608060405234801561001057600080fd5b506101b9806100206000396000f3fe608060405234801561001057600080fd5b50600436106100365760003560e01c80633adb191b1461003b578063bc9748a114610062575b600080fd5b6100506100493660046100aa565b6020015190565b60405190815260200160405180910390f35b61006a61006c565b005b60405168056bc75e2d6310000081527f58b69f57828e6962d216502094c54f6562f3bf082ba758966c3454f9e37b15259060200160405180910390a1565b6000602082840312156100bb578081fd5b813567ffffffffffffffff808211156100d2578283fd5b818401915084601f8301126100e5578283fd5b8135818111156100f7576100f7610154565b604051601f8201601f19908116603f0116810190838211818310171561011f5761011f610154565b81604052828152876020848701011115610137578586fd5b826020860160208301379182016020019490945295945050505050565b7f4e487b7100000000000000000000000000000000000000000000000000000000600052604160045260246000fdfea26469706673582212203666bab724b0753a1ca766c7da05fe3f64497187986e076947bdb454dda537ec64736f6c63430008040033",
  "linkReferences": {},
  "deployedLinkReferences": {}
}